S01200004D617A65536F6C7665722E737265630A
S11300000C9434000C9446000C9446000C94460066
S11300100C9446000C9446000C9446000C94460044
S11300200C9446000C9446000C9446000C94460034
S11300300C9446000C9446000C9446000C94460024
S11300400C9446000C9446000C9446000C94460014
S11300500C9446000C9446000C9446000C94460004
S11300600C9446000C94460011241FBECFEFD8E038
S1130070DEBFCDBF21E0A0E0B1E001C01D92A233FC
S1130080B207E1F70E9455030C944F050C9400004D
S113009083EF8093B00084BD83E08093B10085BD7D
S11300A01092B4001092B30018BC17BC8AB18866D1
S11300B08AB9239A0895009769F020E030E0E7E8D0
S11300C0F3E13197F1F700C000002F5F3F4F821733
S11300D09307A9F70895CF93DF9318BCC4EBD0E03E
S11300E0188289E187BD88838FED92E00E945B00CE
S11300F017BC1882DF91CF910895CF93DF9318BC7A
S11301001092B40089E188BDC3EBD0E088838FED01
S113011092E00E945B0018BC1882DF91CF91089591
S1130120ECE2F1E085811082118212821382148242
S11301308FEF87B918B88FE188B982E48A95F1F70F
S113014000C080E288B987B987E795E00197F1F7A5
S113015000C0000086B1982F9170908381FB99278D
S113016090F9918382FB992790F9928383FB9927D5
S113017090F993838295817084830895CF93DF935C
S113018087E188BDC4EBD0E089E1888382EC91E00B
S11301900E945B000E94900018BC1882DF91CF91EE
S11301A00895CF93DF9387E188BDC4EBD0E089E164
S11301B0888380E790E00E945B000E94900018BC56
S11301C01882DF91CF910895CF92DF92EF92FF9240
S11301D06B017C018CE188BD8EE18093B400809139
S11301E02C01882399F080912E01811112C08091F5
S11301F02F01811111C080913001811110C08091B3
S11302002D0181110FC065E070E00EC060E070E068
S11302100BC060E070E008C060E070E005C060E022
S113022070E002C064E070E080912D018823A9F0A1
S113023080912C01811111C080912F0181110DC079
S113024080913001811109C080912E01811103C078
S113025062E070E002C061E070E080912E018823CA
S113026091F080912C0181110EC080912D0181119A
S11302700AC080913001811106C060912F0170E0A5
S113028071956195710980912F01882399F080916E
S11302902C0181110FC080912D0181110BC080911F
S11302A02E01811107C080913001811160C06EEF71
S11302B07FEF5FC080913001882389F080912D0108
S11302C081110DC080912E01811109C080912F01EF
S11302D0811105C080912C01882309F44FC0611558
S11302E0710531F48CE188BD8EE18093B4005DC06A
S11302F0072E000C880B990B0E945604A701960147
S11303000E94BA040E941E046F31710514F06EE15C
S113031070E0623E8FEF780714F462EE7FEF9B018A
S1130320225E3F4F8CE190E0861B970B893C910540
S113033010F080E090E088BD2093B40036C0072E12
S1130340000C880B990B0E945604A70196010E9489
S1130350BA040E941E046F31710514F06EE170E05E
S1130360623E8FEF7807DCF662EE7FEFD8CF6CEF5A
S11303707FEF80913001882311F3A0CF20E030E09B
S113038040EA50ECC701B6010E94BA040E941E0460
S11303906F31710514F06EE170E0623E8FEF780703
S11303A00CF0BDCF62EE7FEFBACFFF90EF90DF90FD
S11303B0CF900895E0910001F0910101E45FFE4FB8
S11303C08081823519F40E947D000EC0E091000105
S11303D0F0910101E45FFE4F80818C3419F40E9496
S11303E06B0002C00E94D100809100019091010134
S11303F0019690930101809300010895CF93DF93B8
S113040018BC1092B4000E94D10080912C01882362
S113041049F1C0913001C11125C00E94BE008091F4
S11304202D0181110CC080912E01811108C0D09141
S11304302F01D11104C00E946B00CD2F69C00E940E
S11304406B0080910001909101019C012F5F3F4F4F
S11304503093010120930001FC01E45FFE4F2CE482
S1130460208356C0C0912C01C11129C08091300154
S1130470882329F10E94BE0080912D0181110CC0B6
S113048080912E01811108C0D0912F01D11104C097
S11304900E947D00CD2F3CC00E94D10080910001BC
S11304A0909101019C012F5F3F4F309301012093F4
S11304B00001FC01E45FFE4F23E5208329C00E9474
S11304C0BE0080912C01882381F080912D01882326
S11304D061F080912E01882341F080912F018823BF
S11304E021F0C0913001C11113C00E946B008091B2
S11304F00001909101019C012F5F3F4F3093010156
S113050020930001FC01E45FFE4F2CE42083C0E053
S11305108C2FDF91CF910895CF93DF9318BC109265
S1130520B4000E94D10080912C018823C9F0C091AD
S11305303001C11115C00E94BE0080912D018111AE
S11305400CC080912E01811108C0D0912F01D111CE
S113055004C00E946B00CD2F39C00E94DA0136C05E
S1130560C0912C01C11119C0809130018823A9F0D8
S11305700E94BE0080912D0181110CC080912E013A
S1130580811108C0D0912F01D11104C00E947D00B7
S1130590CD2F1CC00E94DA0119C00E94BE008091B8
S11305A02C01882381F080912D01882361F08091B2
S11305B02E01882341F080912F01882321F0C091DE
S11305C03001C11103C00E94DA01C0E08C2FDF9119
S11305D0CF9108950E946B000E946B0080910001EE
S11305E0909101019C012F5F3F4F309301012093B3
S11305F00001FC01E45FFE4F25E5208308958C345F
S113060039F4633589F06C3489F0623561F410C0D3
S1130610833529F46C3471F0623529F40DC08235C8
S113062011F46C3459F0089582E5089583E5089532
S113063085E5089582E508958CE4089585E5089597
S11306406091000170910101615071096AF1FB012F
S1130650E45FFE4F8081853621F580910001909101
S1130660010168177907A4F4CB019C012F5F3F4F68
S1130670F901E45FFE4F4081FC01E45FFE4F4083DB
S11306804091000150910101C901241735076CF311
S11306908091000190910101019790930101809351
S11306A000016150710998F608950E94480080E0A5
S11306B090E025E6FC01E45FFE4F208301968E3135
S11306C09105C1F70CE211E00E949000F8018081CD
S11306D0811103C08481882379F00E94FE01811175
S11306E031C0C8EBDBE060E070E088EC91E40E948C
S11306F0E4002197C1F7E8CFF801808181111BC084
S11307008181811118C08281811115C08381811179
S113071012C0848181110FC00E94BE000E94EA02AF
S1130720C8EBDBE060E070E088EC91E40E94E40058
S11307302197C1F7C9CF60E070E080EE90E40E9499
S1130740E400C2CFBB24B3940F2EF5E6DF2EF02DC8
S1130750C12CC0910001D091010121971AF19B2D68
S1130760FE01E45FFE4F80818535C1F48E01035F95
S11307701E4FF8016081CE01855F9E4F7C01FC0114
S113078080810E94FF02FE01E45FFE4F8083F70137
S1130790D082F801D0820E9420039C2D219700F77B
S11307A09923B9F218BC1092B4001092010110926E
S11307B000018EEC84B981E385B90E949000CCE2FB
S11307C0D1E002C00E94900088818111FBCF898111
S11307D08823C1F38A818823A9F38B81882391F329
S11307E08C818111EFCF0E94BE000CE211E00E94C7
S11307F09000F801808181111CC08481882379F0E4
S11308000E948C02811112C0C8EBDBE060E070E052
S113081088EC91E40E94E4002197C1F7E8CF60E0FE
S113082070E080EE90E40E94E400E1CF0E946B004F
S1130830FDCF0E948C02882339F3F8CF0E9425044F
S11308406894B1110C94B40408950E94990488F03A
S11308509F5798F0B92F9927B751B0F0E1F0660F80
S1130860771F881F991F1AF0BA95C9F714C0B130C1
S113087091F00E94B304B1E008950C94B304672F7F
S1130880782F8827B85F39F0B93FCCF386957795F0
S11308906795B395D9F73EF49095809570956195D9
S11308A07F4F8F4F9F4F0895E89409C097FB3EF404
S11308B090958095709561957F4F8F4F9F4F9923A9
S11308C0A9F0F92F96E9BB279395F6958795779527
S11308D06795B795F111F8CFFAF4BB0F11F460FFE7
S11308E01BC06F5F7F4F8F4F9F4F16C0882311F03F
S11308F096E911C0772321F09EE8872F762F05C053
S1130900662371F096E8862F70E060E02AF09A95ED
S1130910660F771F881FDAF7880F9695879597F9E2
S1130920089557FD9058440F551F59F05F3F71F0DB
S11309304795880F97FB991F61F09F3F79F0879542
S11309400895121613061406551FF2CF4695F1DFCB
S113095008C0161617061806991FF1CF869571055B
S1130960610508940895E894BB2766277727CB018F
S113097097F908950E94CD040C943E050E94300519
S113098038F00E94370520F0952311F00C942705C8
S11309900C942D0511240C94B4040E94910470F35A
S11309A0959FC1F3950F50E0551F629FF001729F10
S11309B0BB27F00DB11D639FAA27F00DB11DAA1F1F
S11309C0649F6627B00DA11D661F829F2227B00D6C
S11309D0A11D621F739FB00DA11D621F839FA00DF7
S11309E0611D221F749F3327A00D611D231F849F47
S11309F0600D211D822F762F6A2F11249F5750409E
S1130A009AF0F1F088234AF0EE0FFF1FBB1F661F18
S1130A10771F881F91505040A9F79E3F510580F0E1
S1130A200C9427050C94B4045F3FE4F3983ED4F38C
S1130A30869577956795B795F795E7959F5FC1F785
S1130A40FE2B880F911D9695879597F9089597F930
S1130A509F6780E870E060E008959FEF80EC089560
S1130A6000240A9416161706180609060895002489
S1130A700A9412161306140605060895092E039403
S1130A80000C11F4882352F0BB0F40F4BF2B11F477
S1130A9060FF04C06F5F7F4F8F4F9F4F0895F8949E
S1050AA0FFCF82
S9030000FC
