:100000000C9434000C9446000C9446000C9446006A
:100010000C9446000C9446000C9446000C94460048
:100020000C9446000C9446000C9446000C94460038
:100030000C9446000C9446000C9446000C94460028
:100040000C9446000C9446000C9446000C94460018
:100050000C9446000C9446000C9446000C94460008
:100060000C9446000C94460011241FBECFEFD8E03C
:10007000DEBFCDBF21E0A0E0B1E001C01D92A13301
:10008000B207E1F70E94B1020C946A040C940000DC
:1000900083EF8093B00084BD83E08093B10085BD81
:1000A0001092B4001092B30018BC17BC8AB18866D5
:1000B0008AB9239A0895009769F020E030E0E7E8D4
:1000C000F3E13197F1F700C000002F5F3F4F821737
:1000D0009307A9F70895CF93DF9318BCC4EBD0E042
:1000E000188289E187BD88838FED92E00E945B00D2
:1000F00017BC1882DF91CF910895CF93DF9318BC7E
:100100001092B40089E188BDC3EBD0E088838FED05
:1001100092E00E945B0018BC1882DF91CF91089595
:10012000ECE2F1E085811082118212821382148246
:100130008FEF87B918B88FE188B982E48A95F1F713
:1001400000C080E288B987B98EE595E00197F1F7A4
:1001500000C0000086B1982F9170908381FB992791
:1001600090F9918382FB992790F9928383FB9927D9
:1001700090F993838295817084830895CF93DF9360
:1001800087E188BDC4EBD0E089E1888382EC91E00F
:100190000E945B000E94900018BC1882DF91CF91F2
:1001A0000895CF93DF9387E188BDC4EBD0E089E168
:1001B000888380E790E00E945B000E94900018BC5A
:1001C0001882DF91CF910895CF92DF92EF92FF9244
:1001D0006B017C0187E188BD89E18093B400809147
:1001E0002C01882399F080912E01811112C08091F9
:1001F0002F01811111C080913001811110C08091B7
:100200002D0181110FC065E070E00EC060E070E06C
:100210000BC060E070E008C060E070E005C060E026
:1002200070E002C064E070E080912D018823A9F0A5
:1002300080912C01811111C080912F0181110DC07D
:1002400080913001811109C080912E01811103C07C
:1002500062E070E002C061E070E080912E018823CE
:1002600091F080912C0181110EC080912D0181119E
:100270000AC080913001811106C060912F0170E0A9
:1002800071956195710980912F01882399F0809172
:100290002C0181110FC080912D0181110BC0809123
:1002A0002E01811107C080913001811160C06EEF75
:1002B0007FEF5FC080913001882389F080912D010C
:1002C00081110DC080912E01811109C080912F01F3
:1002D000811105C080912C01882309F44FC061155C
:1002E000710531F487E188BD89E18093B4005DC078
:1002F000072E000C880B990B0E947103A701960131
:100300000E94D5030E9439036A31710514F069E136
:1003100070E0673E8FEF780714F467EE7FEF9B0184
:10032000275E3F4F87E190E0861B970B893C910544
:1003300010F080E090E088BD2093B40036C0072E16
:10034000000C880B990B0E947103A70196010E9473
:10035000D5030E9439036A31710514F069E170E038
:10036000673E8FEF7807DCF667EE7FEFD8CF6CEF54
:100370007FEF80913001882311F3A0CF20E030E09F
:1003800040EA50ECC701B6010E94D5030E94390330
:100390006A31710514F069E170E0673E8FEF78070C
:1003A0000CF0BDCF67EE7FEFBACFFF90EF90DF90FC
:1003B000CF900895CF93DF9318BC1092B4000E94A1
:1003C000D10080912C01882349F1C0913001C111E5
:1003D00025C00E94BE0080912D0181110CC080912A
:1003E0002E01811108C0D0912F01D11104C00E94AB
:1003F0006B00CD2F69C00E946B008091000190912D
:1004000001019C012F5F3F4F3093010120930001B8
:10041000FC01E45FFE4F2CE4208356C0C0912C0108
:10042000C11129C080913001882329F10E94BE00AA
:1004300080912D0181110CC080912E01811108C085
:10044000D0912F01D11104C00E947D00CD2F3CC05E
:100450000E94D10080910001909101019C012F5FC9
:100460003F4F3093010120930001FC01E45FFE4FF8
:1004700023E5208329C00E94BE0080912C0188239F
:1004800081F080912D01882361F080912E018823D5
:1004900041F080912F01882321F0C0913001C111DA
:1004A00013C00E946B0080910001909101019C019A
:1004B0002F5F3F4F3093010120930001FC01E45F67
:1004C000FE4F2CE42083C0E08C2FDF91CF91089564
:1004D0000E946B000E946B008091000190910101CD
:1004E0009C012F5F3F4F3093010120930001FC01DD
:1004F000E45FFE4F25E5208308956091000170912F
:1005000001016150710962F1A5E6FB01E45FFE4F54
:10051000A083809100019091010168177907A4F4EC
:10052000CB019C012F5F3F4FF901E45FFE4F4081FB
:10053000FC01E45FFE4F40834091000150910101B6
:10054000C901241735076CF38091000190910101D6
:100550000197909301018093000161507109A8F601
:1005600008950E94480080E090E025E6FC01E45FE9
:10057000FE4F208301968E319105C1F70CE211E008
:100580000E949000F8018081811103C0848188233A
:1005900079F00E94DA01811169C0C8EBDBE060E00C
:1005A00070E088EC91E40E94E4002197C1F7E8CF65
:1005B000F801808181111BC08181811118C0828165
:1005C000811115C08381811112C0848181110FC0F6
:1005D0000E94BE000E946802C8EBDBE060E070E0B1
:1005E00088EC91E40E94E4002197C1F7C9CFF8019B
:1005F0008081882381F08181882369F0828188232A
:1006000051F08381882339F08481882321F018BC3C
:100610001092B4002BC060E070E080EE90E40E9485
:10062000E400AECFC0910001D09101012197D2F03A
:10063000902FFE01E45FFE4F8081853579F4FE0145
:10064000E45FFE4F8081FE01E35FFE4F8081FE018B
:10065000E55FFE4F80810E947D02912F219748F730
:10066000992301F318BC1092B400FFCF01E010E011
:10067000D9CF0E9440036894B1110C94CF03089520
:100680000E94B40388F09F5798F0B92F9927B7516B
:10069000B0F0E1F0660F771F881F991F1AF0BA9526
:1006A000C9F714C0B13091F00E94CE03B1E00895B3
:1006B0000C94CE03672F782F8827B85F39F0B93FA5
:1006C000CCF3869577956795B395D9F73EF49095D9
:1006D0008095709561957F4F8F4F9F4F0895E89457
:1006E00009C097FB3EF490958095709561957F4F7A
:1006F0008F4F9F4F9923A9F0F92F96E9BB27939528
:10070000F695879577956795B795F111F8CFFAF437
:10071000BB0F11F460FF1BC06F5F7F4F8F4F9F4F68
:1007200016C0882311F096E911C0772321F09EE8C6
:10073000872F762F05C0662371F096E8862F70E02C
:1007400060E02AF09A95660F771F881FDAF7880F06
:100750009695879597F9089557FD9058440F551F22
:1007600059F05F3F71F04795880F97FB991F61F033
:100770009F3F79F087950895121613061406551FAA
:10078000F2CF4695F1DF08C0161617061806991F16
:10079000F1CF86957105610508940895E894BB270B
:1007A00066277727CB0197F908950E94E8030C94F8
:1007B00059040E944B0438F00E94520420F0952303
:1007C00011F00C9442040C94480411240C94CF03AF
:1007D0000E94AC0370F3959FC1F3950F50E0551F35
:1007E000629FF001729FBB27F00DB11D639FAA2786
:1007F000F00DB11DAA1F649F6627B00DA11D661FD5
:10080000829F2227B00DA11D621F739FB00DA11DF5
:10081000621F839FA00D611D221F749F3327A00DAF
:10082000611D231F849F600D211D822F762F6A2F4B
:1008300011249F5750409AF0F1F088234AF0EE0FB0
:10084000FF1FBB1F661F771F881F91505040A9F7DD
:100850009E3F510580F00C9442040C94CF035F3FFF
:10086000E4F3983ED4F3869577956795B795F79519
:10087000E7959F5FC1F7FE2B880F911D9695879591
:1008800097F9089597F99F6780E870E060E0089510
:100890009FEF80EC089500240A9416161706180698
:1008A0000906089500240A94121613061406050674
:1008B0000895092E0394000C11F4882352F0BB0F05
:1008C00040F4BF2B11F460FF04C06F5F7F4F8F4F68
:0808D0009F4F0895F894FFCF3B
:00000001FF
