S01200004D617A65536F6C7665722E737265630A
S11300000C9434000C9446000C9446000C94460066
S11300100C9446000C9446000C9446000C94460044
S11300200C9446000C9446000C9446000C94460034
S11300300C9446000C9446000C9446000C94460024
S11300400C9446000C9446000C9446000C94460014
S11300500C9446000C9446000C9446000C94460004
S11300600C9446000C94460011241FBECFEFD8E038
S1130070DEBFCDBF21E0A0E0B1E001C01D92A133FD
S1130080B207E1F70E9441020C9422040C94000090
S113009083EF8093B00084BD83E08093B10085BD7D
S11300A01092B4001092B30018BC17BC8AB18866D1
S11300B08AB9239A0895009769F020E030E0E7E8D0
S11300C0F3E13197F1F700C000002F5F3F4F821733
S11300D09307A9F70895CF93DF9318BCC4EBD0E03E
S11300E018828AE087BD888384E690E00E945B00E2
S11300F017BC1882DF91CF910895CF93DF9318BC7A
S11301001092B4008AE088BDC3EBD0E0888384E613
S113011090E00E945B0018BC1882DF91CF91089593
S1130120ECE2F1E085811082118212821382148242
S11301308FEF87B918B88FE188B982E48A95F1F70F
S113014000C080E288B987B98FEC97E00197F1F796
S113015000C0000086B1982F9170908381FB99278D
S113016090F9918382FB992790F9928383FB9927D5
S113017090F993838295817084830895CF93DF935C
S11301808AE088BDC4EBD0E0888384E690E00E94D6
S11301905B000E94900018BC1882DF91CF910895F3
S11301A089E188BD8093B40080912C01882399F063
S11301B080912E01811112C080912F01811111C0F3
S11301C080913001811110C080912D0181110FC0E7
S11301D065E070E00EC060E070E00BC060E070E0CD
S11301E008C060E070E005C060E070E002C064E058
S11301F070E080912D018823A9F080912C01811158
S113020011C080912F0181110DC0809130018111A5
S113021009C080912E01811103C062E070E002C028
S113022061E070E080912E01882391F080912C018F
S113023081110EC080912D0181110AC0809130017D
S1130240811106C060912F0170E07195619571096B
S113025080912F01882399F080912C0181110FC086
S113026080912D0181110BC080912E01811107C055
S11302708091300181115FC06EEF7FEF5EC080918D
S11302803001882381F080912D0181110CC080916F
S11302902E01811108C080912F01811104C0809129
S11302A02C01882311F161157105D1F0072E000C82
S11302B0880B990B0E94290320E030E040E450E4CD
S11302C00E948D030E94F1026A31710514F069E104
S11302D070E0673E8FEF780754F467EE7FEF07C056
S11302E089E188BD8093B400089561EF7FEF89E1CF
S11302F090E0861B970B88BD675E7F4F6093B400C8
S11303000895072E000C880B990B0E94290320E006
S113031030E040E450E40E948D030E94F1026A310F
S1130320710514F069E170E0673E8FEF7807FCF621
S113033067EE7FEFDCCF6CEF7FEF80913001882395
S113034001F3A1CF18BC1092B40080912C01882332
S1130350F1F08091300181111AC00E94BE00809199
S11303602E01811103C00E946B0008958091000149
S1130370909101019C012F5F3F4F30930101209325
S11303800001FC01E45FFE4F2CE42083FFCF809149
S11303902C0181111EC0809130018823D1F00E946C
S11303A0BE0080912E01811103C00E947D0008953A
S11303B080910001909101019C012F5F3F4F309388
S11303C0010120930001FC01E45FFE4F23E520833B
S11303D0FFCF0E94BE0080910001909101019C0119
S11303E02F5F3F4F3093010120930001FC01E45F34
S11303F0FE4F2CE42083FFCF8091000190910101F6
S11304009C012F5F3F4F3093010120930001FC01B9
S1130410E45FFE4F25E52083FFCF609100017091DA
S113042001016150710962F1A5E6FB01E45FFE4F31
S1130430A083809100019091010168177907A4F4C9
S1130440CB019C012F5F3F4FF901E45FFE4F4081D8
S1130450FC01E45FFE4F4083409100015091010193
S1130460C901241735076CF38091000190910101B3
S11304700197909301018093000161507109A8F6DE
S113048008950E94480080E090E025E6FC01E45FC6
S1130490FE4F208301968E319105C1F7CCE2D1E065
S11304A00E9490008881811103C08C81882319F0F7
S11304B00E94A201F5CF888181110EC0898181112A
S11304C00BC08A81811108C08B81811105C08C8188
S11304D0811102C00E94FC018881882361F0898116
S11304E0882349F08A81882331F08B81882319F08D
S11304F08C81811103C00E94D000D2CF11E000E0B2
S1130500C0910001D09101012197D2F0812FFE0109
S1130510E45FFE4F9081953579F4FE01E45FFE4F70
S11305208081FE01E35FFE4F8081FE01E55FFE4FA7
S113053080810E940D02802F219748F7882301F3C0
S11305401092010110920001ECE2F1E0808181112E
S1130550FDCF81818823D1F382818823B9F38381FC
S11305608823A1F384818111F1CFCCE2D1E00E94F0
S113057090008881811103C08C818823E9F00E9456
S1130580BE00E0910001F0910101E45FFE4F808123
S11305908C3419F40E946B00EACFE0910001F091D1
S11305A00101E45FFE4F8081823519F40E947D00D1
S11305B0DECF0E94D000DBCF8881882379F0898147
S11305C0882361F08A81882349F08B81882331F064
S11305D08C81882319F00E946B00FDCF0E94D0000B
S11305E0C6CF0E94F8026894B1110C948703089551
S11305F00E946C0388F09F5798F0B92F9927B75140
S1130600B0F0E1F0660F771F881F991F1AF0BA95B2
S1130610C9F714C0B13091F00E948603B1E0089587
S11306200C948603672F782F8827B85F39F0B93F79
S1130630CCF3869577956795B395D9F73EF4909565
S11306408095709561957F4F8F4F9F4F0895E894E3
S113065009C097FB3EF490958095709561957F4F06
S11306608F4F9F4F9923A9F0F92F96E9BB279395B4
S1130670F695879577956795B795F111F8CFFAF4C4
S1130680BB0F11F460FF1BC06F5F7F4F8F4F9F4FF5
S113069016C0882311F096E911C0772321F09EE853
S11306A0872F762F05C0662371F096E8862F70E0B9
S11306B060E02AF09A95660F771F881FDAF7880F93
S11306C09695879597F9089557FD9058440F551FAF
S11306D059F05F3F71F04795880F97FB991F61F0C0
S11306E09F3F79F087950895121613061406551F37
S11306F0F2CF4695F1DF08C0161617061806991FA3
S1130700F1CF86957105610508940895E894BB2797
S113071066277727CB0197F908950E94A0030C94CC
S113072011040E94030438F00E940A0420F0952367
S113073011F00C94FA030C94000411240C94870314
S11307400E94640370F3959FC1F3950F50E0551F09
S1130750629FF001729FBB27F00DB11D639FAA2712
S1130760F00DB11DAA1F649F6627B00DA11D661F61
S1130770829F2227B00DA11D621F739FB00DA11D82
S1130780621F839FA00D611D221F749F3327A00D3C
S1130790611D231F849F600D211D822F762F6A2FD8
S11307A011249F5750409AF0F1F088234AF0EE0F3D
S11307B0FF1FBB1F661F771F881F91505040A9F76A
S11307C09E3F510580F00C94FA030C9487035F3F1D
S11307D0E4F3983ED4F3869577956795B795F795A6
S11307E0E7959F5FC1F7FE2B880F911D969587951E
S11307F097F9089597F99F6780E870E060E008959D
S11308009FEF80EC089500240A9416161706180624
S11308100906089500240A94121613061406050600
S11308200895092E0394000C11F4882352F0BB0F91
S113083040F4BF2B11F460FF04C06F5F7F4F8F4FF4
S10B08409F4F0895F894FFCFC7
S9030000FC
