:100000000C9434000C9446000C9446000C9446006A
:100010000C9489000C9446000C9446000C94460005
:100020000C9446000C9446000C9446000C94E2009C
:100030000C9446000C9446000C9446000C94460028
:100040000C9446000C9446000C9446000C94460018
:100050000C9446000C9446000C9446000C94460008
:100060000C9446000C94460011241FBECFEFD8E03C
:10007000DEBFCDBF21E0A0E0B1E001C01D92A731FD
:10008000B207E1F70E9402010C94C3030C94000034
:1000900083EF8093B00084BD83E08093B10085BD81
:1000A0001092B4001092B30018BC17BC8AB18866D5
:1000B0008AB9239A0895E2E1F1E0858110821182E4
:1000C0001282138214828FEF87B918B88FE188B932
:1000D00082E48A95F1F700C080E288B987B98FEC95
:1000E00097E00197F1F700C0000086B1982F91705A
:1000F000908381FB992790F9918382FB992790F94E
:10010000928383FB992790F99383829581708483EE
:1001100008951F920F920FB60F9211242F933F93C1
:100120004F935F936F937F938F939F93AF93BF93FF
:10013000409100015091010126B130E0309301015E
:10014000209300016091840070918500CA01817044
:10015000992790930D0180930C012091000130911B
:1001600001012170332730930F0120930E018091FC
:100170000001909101018427952780FF14C0CB01D5
:10018000A0E0B0E081159540A105B10514F41092EE
:10019000120181E090E0909303018093020170933B
:1001A000110160931001BF91AF919F918F917F9149
:1001B0006F915F914F913F912F910F900FBE0F90D4
:1001C0001F9018951F920F920FB60F9211248F93C4
:1001D0009F93EF93FF93E2E0F1E081E090E0918361
:1001E0008083938382839583848397838683918797
:1001F0008087FF91EF919F918F910F900FBE0F908D
:100200001F9018950E94480089E188BD8093B40032
:10021000E12CF12CC12CD12CC2E1D1E00F2EF9E15F
:100220008F2E912CF02D0F2EF4EB2F2E312CF02D44
:100230000F2EF7EEAF2EF02D0F2EF9E1BF2EF02D81
:100240000E945B008881882379F08A8181110EC029
:100250008B8181110DC08C8181110CC0898181112C
:100260000BC005E010E00AC0860108C0860106C088
:10027000860104C0860102C004E010E08981882361
:1002800089F0888181110EC08B8181110BC08C8116
:10029000811108C08A81811103C002E010E002C010
:1002A00001E010E08A81882371F0888181110BC000
:1002B0008981811108C08C81811105C00B8110E0FA
:1002C0001195019511098B81882369F0888181112D
:1002D0000AC08981811107C08A81811104C08C8183
:1002E0008111ADC0A9C08C81882369F089818111F9
:1002F0000AC08A81811107C08B81811104C0888165
:10030000882309F457C0E00EF11E0115110529F4E8
:10031000B8BCF101B082680193CFB801012E000C86
:10032000880B990B0E94CA0220E030E040EA50E4BA
:100330000E9456032B013C01B7010F2C000C880BC7
:10034000990B0E94CA0220E030E0A9010E945603E6
:100350009B01AC01C301B2010E9426022B013C01AA
:10036000B8016C197D09072E000C880B990B0E94AF
:10037000CA0220E030E0A9010E9456039B01AC01B3
:10038000C301B2010E9426020E9492026A317105E5
:100390000CF0B401673EFFEF7F0714F46A2D7FEF86
:1003A0006801C401861B970B88BD675E7F4FF10112
:1003B000608346CFF5E0EF1AF108B7010F2C000C6F
:1003C000880B990B0E94CA0220E030E0A9010E942C
:1003D000560320E030E048EC51E40E9425022B0156
:1003E0003C016BEF7FEF6C197D09072E000C880B29
:1003F000990B0E94CA0220E030E0A9010E94560336
:100400009B01AC01C301B2010E9426020E9492022C
:100410006A3171050CF0B401673E8FEF780714F470
:100420006A2D7FEF0F2EFBEFCF2EDD24DA94F02D17
:10043000B8CFE00EF11E71CF0EEF1FEF02C00CEF30
:100440001FEF8C818823A9F351CF5058BB27AA27CF
:100450000E943D020C941C030E940E0338F00E947F
:10046000150320F039F49F3F19F426F40C940B0384
:100470000EF4E095E7FB0C940503E92F0E942D0391
:1004800058F3BA17620773078407950720F079F4C9
:10049000A6F50C944F030EF4E0950B2EBA2FA02D69
:1004A0000B01B90190010C01CA01A0011124FF2721
:1004B000591B99F0593F50F4503E68F11A16F0401C
:1004C000A22F232F342F4427585FF3CF469537951B
:1004D0002795A795F0405395C9F77EF41F16BA0BE0
:1004E000620B730B840BBAF09150A1F0FF0FBB1F8E
:1004F000661F771F881FC2F70EC0BA0F621F731FD7
:10050000841F48F4879577956795B795F7959E3F33
:1005100008F0B0CF9395880F08F09927EE0F9795C4
:10052000879508950E9499026894B1110C94500324
:1005300008950E94350388F09F5798F0B92F9927A6
:10054000B751B0F0E1F0660F771F881F991F1AF0BE
:10055000BA95C9F714C0B13091F00E944F03B1E0D1
:1005600008950C944F03672F782F8827B85F39F0D0
:10057000B93FCCF3869577956795B395D9F73EF457
:1005800090958095709561957F4F8F4F9F4F0895FF
:10059000E89409C097FB3EF490958095709561951D
:1005A0007F4F8F4F9F4F9923A9F0F92F96E9BB27D3
:1005B0009395F695879577956795B795F111F8CF4F
:1005C000FAF4BB0F11F460FF1BC06F5F7F4F8F4FBA
:1005D0009F4F16C0882311F096E911C0772321F0B0
:1005E0009EE8872F762F05C0662371F096E8862F48
:1005F00070E060E02AF09A95660F771F881FDAF79F
:10060000880F9695879597F9089597F99F6780E8E1
:1006100070E060E008959FEF80EC089500240A9454
:100620001616170618060906089500240A941216CD
:100630001306140605060895092E0394000C11F400
:10064000882352F0BB0F40F4BF2B11F460FF04C0AD
:100650006F5F7F4F8F4F9F4F089557FD9058440F06
:10066000551F59F05F3F71F04795880F97FB991F11
:1006700061F09F3F79F087950895121613061406CE
:10068000551FF2CF4695F1DF08C01616170618065B
:10069000991FF1CF86957105610508940895E89436
:1006A000BB2766277727CB0197F908950E94690336
:1006B0000C941C030E940E0338F00E94150320F0D6
:1006C000952311F00C9405030C940B0311240C9446
:1006D00050030E942D0370F3959FC1F3950F50E0D6
:1006E000551F629FF001729FBB27F00DB11D639FE4
:1006F000AA27F00DB11DAA1F649F6627B00DA11D8A
:10070000661F829F2227B00DA11D621F739FB00D2F
:10071000A11D621F839FA00D611D221F749F33279F
:10072000A00D611D231F849F600D211D822F762F38
:100730006A2F11249F5750409AF0F1F088234AF015
:10074000EE0FFF1FBB1F661F771F881F9150504081
:10075000A9F79E3F510580F00C9405030C945003BB
:100760005F3FE4F3983ED4F3869577956795B79508
:10077000F795E7959F5FC1F7FE2B880F911D969522
:0A078000879597F90895F894FFCFCC
:00000001FF
